:100000001FC043C042C041C04BC03FC03EC03DC006
:100010003CC03BC03AC08AC538C038C036C035C0C5
:1000200034C00102048040201008040201020202D0
:100030000101010101010101003B38003A37F704D9
:1000400011241FBECFE5D2E0DEBFCDBF10E0A0E699
:10005000B0E0EEEAF1E102C005900D92A037B107E1
:10006000D9F710E0A0E7B0E001C01D92AB3CB107AA
:10007000E1F710E0C0E4D0E003C02297FE0191D880
:10008000CE33D107D1F7F1D490C8BACF1F920F92D7
:100090000FB60F9211240F900FBE0F901F9018955E
:1000A0001F920F920FB60F9211248F9388E10FB613
:1000B000F89481BD11BC0FBEA89581B58F7B81BD21
:1000C0008F910F900FBE0F901F9018952F923F9217
:1000D0004F925F926F927F928F929F92AF92BF9258
:1000E000CF92DF92EF92FF920F931F93CF93DF9304
:1000F000CDB7DEB72A970FB6F894DEBF0FBECDBFDF
:100100009A878987DC01D8968C91811102C080E0A2
:10011000F6C055D569837A838B839C83E985FA85FC
:1001200080A191A1A2A1B3A149815A816B817C8157
:10013000481B590B6A0B7B0B84A595A5A6A5B7A5F3
:10014000481759076A077B0710F3028CF38DE02DDF
:10015000C080D180E280F380A985BA855E96ED915A
:10016000FC915F97A70196016081718182819381E3
:10017000F3D56D837E838F839887E985FA852089FF
:10018000318942895389A0D7A985BA8594962D9142
:100190003D914D915C919797E0D51B012C01862FE5
:1001A000932DA42DB52DE985FA8584A395A3A6A347
:1001B000B7A364A875A806A917A9262D372D402F27
:1001C000512F622D732D842D952D7AD718165CF43E
:1001D000862D972DA02FB12FE985FA8584A395A3AD
:1001E000A6A3B7A317C0A985BA85D0968D909D9078
:1001F000AD90BC90D397A5019401622D732D842DF1
:10020000952D0FD687FF06C0E985FA8584A295A2B1
:10021000A6A2B7A2A985BA851C962D913D914D91B4
:100220005C911F97BD81AE81BF80A8846B2F7A2F10
:100230008B2D9A2D49D7E985FA8524A135A146A1B0
:1002400057A18BD54B015C01A985BA8598962D9154
:100250003D914D915C919B97C701B6017DD5E98594
:10026000FA8524893589468957892ED79B01AC01A7
:10027000C501B40171D54B015C01262D372D402FEE
:10028000512F682D792D8A2D9B2D1AD71816D4F051
:10029000A985BA85D0966C90D097D1967C90D1974D
:1002A000D2960C91D297D3961C91262D372D402FA4
:1002B000512F682D792D8A2D9B2DB3D587FD02C036
:1002C00034018501A985BA855C96ED91FC915D9715
:1002D000862D972DA02FB12F80839183A283B38386
:1002E000E985FA85C0A6D1A6E2A6F3A689819A81FE
:1002F000AB81BC8180A391A3A2A3B3A381E02A9682
:100300000FB6F894DEBF0FBECDBFDF91CF911F9126
:100310000F91FF90EF90DF90CF90BF90AF909F90A4
:100320008F907F906F905F904F903F902F900895A7
:100330002F923F924F925F926F927F928F929F92F5
:10034000AF92BF92CF92DF92EF92FF920F931F93E3
:10035000CF93DF93EC014A015B012801390120E0D2
:1003600030E0A901C501B4015CD587FD75C020E06E
:1003700030E0A901C301B20154D587FD6DC020E072
:1003800030E0A901C701B6014CD587FD65C0888260
:100390009982AA82BB824C825D826E827F82C886ED
:1003A000D986EA86FB866CA57DA58EA59FA5D6D5A8
:1003B00020E030E04AE754E438D51B018C018C86FC
:1003C0009D86AE86BF86762F272F332D402F512F47
:1003D000C301B20179D62B013C01862F952DA62DA4
:1003E000B72D888B998BAA8BBB8B222D332D402F59
:1003F000512FC701B60119D57B018C01862F9F2D86
:10040000A02FB12F8C8B9D8BAE8BBF8B888D998D40
:10041000019711F5A501940160E070E0CB019CD437
:100420006C877D878E879F87242D352D462D572DF0
:1004300060E070E0CB0190D4688B798B8A8B9B8BCA
:100440002E2D3F2D402F512F60E070E0CB0184D442
:100450006C8B7D8B8E8B9F8BDF91CF911F910F913A
:10046000FF90EF90DF90CF90BF90AF909F908F90D4
:100470007F906F905F904F903F902F9008958F9254
:100480009F92AF92BF92CF92DF92EF92FF92CF9363
:10049000DF93EC0116161706ACF56B01EE24D7FCC2
:1004A000E094FE2CC701B6015BD54B015C016CA545
:1004B0007DA58EA59FA552D59B01AC01C501B401B8
:1004C000B4D44B015C01762F272F392D4A2D5B2D9B
:1004D000688979898A899B89F7D5688B798B8A8B1A
:1004E0009B8B282D392D4A2D5B2D6C897D898E891A
:1004F0009F899BD46C8B7D8B8E8B9F8BCCA6DDA62E
:10050000EEA6FFA6DF91CF91FF90EF90DF90CF9006
:10051000BF90AF909F908F9008954F925F926F928F
:100520007F928F929F92AF92BF92CF92DF92EF9283
:10053000FF920F931F93CF93DF93EC016A017B012E
:1005400028013901A9019801C701B601B9D587FF72
:100550004BC0C8AAD9AAEAAAFBAA4CAA5DAA6EAA4D
:100560007FAA88AD882309F43FC00C8D1D8DF8014A
:1005700080809180A280B380A3019201C501B40163
:100580009FD5181634F4F80140825182628273823A
:100590000CC0A7019601C501B40143D487FF05C073
:1005A000F801C082D182E282F3824CA05DA06EA0ED
:1005B0007FA0CCA8DDA8EEA8FFA8A7019601C301E3
:1005C000B2017ED518160CF40BC0C8A8D9A8EAA8A9
:1005D000FBA8A7019601C301B20123D487FF04C081
:1005E000CCA2DDA2EEA2FFA2DF91CF911F910F91CD
:1005F000FF90EF90DF90CF90BF90AF909F908F9043
:100600007F906F905F904F9008958F929F92AF92DE
:10061000BF92CF92DF92EF92FF92CF93DF93EC01E4
:10062000EC8DFD8DC080D180E280F380CCA2DDA274
:10063000EEA2FFA2EA8DFB8D80819181A281B38120
:1006400088A799A7AAA7BBA78CA89DA8AEA8BFA852
:10065000A5019401C701B60133D518160CF40BC0DF
:1006600088A899A8AAA8BBA8A5019401C701B601AA
:10067000D8D387FF04C08CA29DA2AEA2BFA2DF91F7
:10068000CF91FF90EF90DF90CF90BF90AF909F9071
:100690008F9008951F93CF93DF93EC0111E06130A9
:1006A000710509F010E088AD91E08927181302C0A8
:1006B000CE01ABDF18AFDF91CF911F9108950F935B
:1006C0001F93CF93DF93EC018B0188AD882349F111
:1006D000888D998D6817790721F12C853D854E8588
:1006E0005F8560E070E0CB0137D36C877D878E87B4
:1006F0009F87288939894A895B8960E070E0CB014E
:100700002BD3688B798B8A8B9B8B2C893D894E8967
:100710005F8960E070E0CB011FD36C8B7D8B8E8B8B
:100720009F8B198F088FDF91CF911F910F910895A3
:100730004F925F926F927F928F929F92AF92BF92F1
:10074000CF92DF92EF92FF920F931F93CF93DF939D
:1007500000D000D0CDB7DEB74C0127013801A98207
:10076000BA82CB82DC82FC01558F448F738F628FFB
:10077000378F268F10AE00E010E02FE733E440E023
:1007800050E0BA01CADE84E690E0A0E0B0E0F401F7
:1007900084A795A7A6A7B7A76B8D7C8DC4018FDF13
:1007A000CF88D88CE98CFA8C09811A812B813C8105
:1007B000B301A201C401BCDD02D2F40144A455A4DA
:1007C00066A477A4641975098609970960A371A3C3
:1007D00082A393A30F900F900F900F90DF91CF9172
:1007E0001F910F91FF90EF90DF90CF90BF90AF904F
:1007F0009F908F907F906F905F904F9008950F9390
:100800001F9360E081E035D161E081E04ED160E08E
:1008100082E02FD161E082E048D18FEF81BF8FB5B8
:100820008C7F81608FBD8EB5877E88608EBD8EB5D2
:10083000887F81608EBD60E070E085E04ED261E02F
:1008400070E080E790E026DF68E070E080E790E00D
:1008500016DE00E010E02CE033E440E050E060E819
:100860007FE380E790E059DE1F910F91089582E0C9
:100870001CD2BC01882777FD8095982F71D3609397
:10088000AD007093AE008093AF009093B0002AE06B
:1008900034E84FE95BE318D4FB01462F5F2F682F44
:1008A000792F4093A9005093AA006093AB007093F6
:1008B000AC0020E030E040E450E46E2F7F2F00D405
:1008C000181634F468EE73E080E090E0B5D1CFCF35
:1008D0006AE070E085E001D281E0E7D1BC018827C1
:1008E00077FD8095982F3CD36093B5007093B60048
:1008F0008093B7009093B8002AE034E84FE95BE3B7
:10090000E3D3FB01462F5F2F682F792F4093B1006F
:100910005093B2006093B3007093B40026E636E6BD
:1009200046EA50E46E2F7F2FCBD318165CF2C0E05E
:10093000D0E06C2F80E0B9D081E0C82781E0B5D14C
:10094000BC01882777FD8095982F0AD36093B50066
:100950007093B6008093B7009093B8002AE034E813
:100960004FE95BE3B1D36093B1007093B200809321
:10097000B3009093B40082E098D1BC01882777FD42
:100980008095982FEDD26093AD007093AE00809368
:10099000AF009093B0002AE034E84FE95BE394D3D2
:1009A0006093A9007093AA008093AB009093AC0071
:1009B0008091B5009091B600A091B700B091B800B9
:1009C0008093BD009093BE00A093BF00B093C00081
:1009D00080E790E07BDB6091B9007091BA00809174
:1009E000BB009091BC0089D285E077D1A2CFAF92B5
:1009F000BF92CF92DF92EF92FF920F931F93A0903E
:100A00006800B0906900C0906A00D0906B00E090E0
:100A10006C00F0906D0000916E0010916F001F92BD
:100A20001F92809167008F93809166008F938091D1
:100A300065008F93809164008F9320E630E049EB4E
:100A400050E06DEB70E080E790E072DE0F900F9069
:100A50000F900F900F900F901F910F91FF90EF90BC
:100A6000DF90CF90BF90AF9008950AD1C8DEFFDE2F
:100A7000FECF90E0FC01EE5DFF4F2491FC01E35DB1
:100A8000FF4FE491EE2381F0F0E0E55CFF4FA4918D
:100A9000B0E09FB7F8948C91611103C02095822338
:100AA00001C0822B8C939FBF0895A82FB0E0FD0159
:100AB000EE5DFF4F9491FD01E35DFF4FE491EE2366
:100AC00029F1823019F480B78F7304C0833021F488
:100AD00080B78F7C80BF0AC0843019F48FB58F73C4
:100AE00004C0853019F48FB58F7C8FBDF0E0E85CD1
:100AF000FF4FA491B0E02FB7F8948C91611103C01F
:100B00009095892301C0892B8C932FBF08958EB5B2
:100B1000887F8EBD8FB58C7F81608FBD8EB5877EBF
:100B20008EBD8EB5887F83608EBD08951F920F9213
:100B30000FB60F9211242F933F938F939F93AF93F0
:100B4000BF938091C1009091C200A091C300B09169
:100B5000C4003091C900232F2A5F2D3728F02D576C
:100B60000396A11DB11D03C00296A11DB11D2093C6
:100B7000C9008093C1009093C200A093C300B093BA
:100B8000C4008091C5009091C600A091C700B091AB
:100B9000C8000196A11DB11D8093C5009093C600A9
:100BA000A093C700B093C800BF91AF919F918F9160
:100BB0003F912F910F900FBE0F901F9018950F939C
:100BC0001F938FB7F8940091C1001091C20020913B
:100BD000C3003091C4008FBFB801C9011F910F91AC
:100BE00008950F931F939FB7F8940091C50010913B
:100BF000C6002091C7003091C80082B708B600FE39
:100C000006C08F3F21F00F5F1F4F2F4F3F4F9FBFF9
:100C1000322F212F102F0027080F111D211D311DEC
:100C200043E0000F111F221F331F4A95D1F7B8016F
:100C3000C9011F910F910895CF92DF92EF92FF9219
:100C4000CF93DF936B017C01CCDFEB010DC0C9DFDB
:100C50006C1B7D0B683E734038F081E0C81AD108E8
:100C6000E108F108C851DC4FC114D104E104F104DA
:100C700071F7DF91CF91FF90EF90DF90CF900895C3
:100C8000789480B7836080BF83B7877F83BF83B743
:100C9000887F836083BF89B7816089BF38DF86B171
:100CA000887F866086B9379A08958C3008F08C501A
:100CB00027B19091CA009295990F990F907C2F734C
:100CC000922B97B997B1907C982B97B9369A369911
:100CD000FECF24B135B1C90108951F93CF93DF939F
:100CE000182FEB0161E0C5DE1C161D0614F060E054
:100CF00004C0CF3FD10534F061E0812FDF91CF9167
:100D00001F91D3CE123031F480B78F73806880BFCB
:100D1000C6BF1EC0133031F480B78F7C806280BFA5
:100D2000CCBF16C0143039F48FB58F7380688FBD77
:100D3000DBBDCABD0DC0153039F48FB58F7C806224
:100D40008FBDD9BDC8BD04C0C038D105ACF6CFCF6A
:100D5000DF91CF911F9108955058BB27AA270ED03D
:100D600075C166D130F06BD120F031F49F3F11F4A2
:100D70001EF45BC10EF4E095E7FB51C1E92F77D17A
:100D800080F3BA17620773078407950718F071F4A8
:100D90009EF58FC10EF4E0950B2EBA2FA02D0B01FE
:100DA000B90190010C01CA01A0011124FF27591BB0
:100DB00099F0593F50F4503E68F11A16F040A22FB6
:100DC000232F342F4427585FF3CF46953795279527
:100DD000A795F0405395C9F77EF41F16BA0B620B26
:100DE000730B840BBAF09150A1F0FF0FBB1F661F6D
:100DF000771F881FC2F70EC0BA0F621F731F841FB0
:100E000048F4879577956795B795F7959E3F08F0D5
:100E1000B3CF9395880F08F09927EE0F9795879594
:100E20000895D9D008F481E008950CD00FC107D1FE
:100E300040F0FED030F021F45F3F19F0F0C05111C6
:100E400039C1F3C014D198F39923C9F35523B1F3F1
:100E5000951B550BBB27AA2762177307840738F029
:100E60009F5F5F4F220F331F441FAA1FA9F333D088
:100E70000E2E3AF0E0E830D091505040E695001C3C
:100E8000CAF729D0FE2F27D0660F771F881FBB1FF8
:100E9000261737074807AB07B0E809F0BB0B802DD2
:100EA000BF01FF2793585F4F2AF09E3F510568F01E
:100EB000B6C000C15F3FECF3983EDCF386957795B2
:100EC0006795B795F7959F5FC9F7880F911D969520
:100ED000879597F90895E1E0660F771F881FBB1F7C
:100EE000621773078407BA0720F0621B730B840B29
:100EF000BA0BEE1F88F7E095089504D06894B111FD
:100F0000D9C00895BCD088F09F5790F0B92F992789
:100F1000B751A0F0D1F0660F771F881F991F1AF004
:100F2000BA95C9F712C0B13081F0C3D0B1E00895CD
:100F3000C0C0672F782F8827B85F39F0B93FCCF34E
:100F4000869577956795B395D9F73EF490958095FA
:100F5000709561957F4F8F4F9F4F0895E89409C01A
:100F600097FB3EF490958095709561957F4F8F4FDC
:100F70009F4F9923A9F0F92F96E9BB279395F695F2
:100F8000879577956795B795F111F8CFFAF4BB0F70
:100F900011F460FF1BC06F5F7F4F8F4F9F4F16C0D4
:100FA000882311F096E911C0772321F09EE8872F5E
:100FB000762F05C0662371F096E8862F70E060E01A
:100FC0002AF09A95660F771F881FDAF7880F969593
:100FD000879597F90895990F0008550FAA0BE0E837
:100FE000FEEF16161706E807F907C0F012161306EB
:100FF000E407F50798F0621B730B840B950B39F42B
:101000000A2661F0232B242B252B21F408950A2690
:1010100009F4A140A6958FEF811D811D089597F9D0
:101020009F6780E870E060E008959FEF80EC08958E
:1010300000240A94161617061806090608950024B7
:101040000A9412161306140605060895092E039431
:10105000000C11F4882352F0BB0F40F4BF2B11F4A5
:1010600060FF04C06F5F7F4F8F4F9F4F089557FD04
:101070009058440F551F59F05F3F71F04795880F06
:1010800097FB991F61F09F3F79F08795089512169D
:1010900013061406551FF2CF4695F1DF08C0161649
:1010A00017061806991FF1CF8695710561050894FA
:1010B0000895E894BB2766277727CB0197F9089511
:1010C0008ADF08F48FEF08950AD0C0CFB1DF28F08F
:1010D000B6DF18F0952309F0A2CFA7CFEBCFC7DF7B
:1010E000A8F39923D9F35523C9F3950F50E0551F61
:1010F000AA27EE27FF27BB2700240894679520F432
:10110000E20FF31FB41F0A1E220F331F441FAA1F32
:101110006695A9F7779530F4F30FB41F0A1E121ED7
:1011200008F46395330F441FAA1F221F769599F781
:10113000879520F4B40F0A1E121E631F440FAA1FC6
:10114000221F331F8695A9F7862F712D602D11243C
:101150009F5750408AF0E1F088234AF0EE0FFF1FBE
:10116000BB1F661F771F881F91505040A9F79E3FF5
:10117000510570F054CF9ECF5F3FECF3983EDCF307
:10118000869577956795B795F795E7959F5FC1F732
:10119000FE2B880F911D9695879597F90895EE0F70
:0E11A000FF1F0590F491E02D0994F894FFCF05
:1011AE00F46BCD4317B7D13B8FC2F53C6666E63F75
:00000001FF
